{
  "_format": "hh3-artifact-1",
  "contractName": "SLARegistry",
  "sourceName": "contracts/SLARegistry.sol",
  "abi": [
    {
      "inputs": [
        {
          "internalType": "address",
          "name": "admin",
          "type": "address"
        }
      ],
      "stateMutability": "nonpayable",
      "type": "constructor"
    },
    {
      "inputs": [],
      "name": "AccessControlBadConfirmation",
      "type": "error"
    },
    {
      "inputs": [
        {
          "internalType": "address",
          "name": "account",
          "type": "address"
        },
        {
          "internalType": "bytes32",
          "name": "neededRole",
          "type": "bytes32"
        }
      ],
      "name": "AccessControlUnauthorizedAccount",
      "type": "error"
    },
    {
      "anonymous": false,
      "inputs": [
        {
          "indexed": true,
          "internalType": "uint256",
          "name": "alertId",
          "type": "uint256"
        },
        {
          "indexed": false,
          "internalType": "address",
          "name": "by",
          "type": "address"
        }
      ],
      "name": "AlertAcknowledged",
      "type": "event"
    },
    {
      "anonymous": false,
      "inputs": [
        {
          "indexed": true,
          "internalType": "uint256",
          "name": "alertId",
          "type": "uint256"
        },
        {
          "indexed": false,
          "internalType": "address",
          "name": "by",
          "type": "address"
        },
        {
          "indexed": false,
          "internalType": "string",
          "name": "resolutionNote",
          "type": "string"
        }
      ],
      "name": "AlertResolved",
      "type": "event"
    },
    {
      "anonymous": false,
      "inputs": [
        {
          "indexed": true,
          "internalType": "uint256",
          "name": "contractId",
          "type": "uint256"
        },
        {
          "indexed": true,
          "internalType": "uint256",
          "name": "clientId",
          "type": "uint256"
        },
        {
          "indexed": false,
          "internalType": "string",
          "name": "ipfsCid",
          "type": "string"
        },
        {
          "indexed": false,
          "internalType": "uint64",
          "name": "startDate",
          "type": "uint64"
        },
        {
          "indexed": false,
          "internalType": "uint64",
          "name": "endDate",
          "type": "uint64"
        }
      ],
      "name": "ContractCreated",
      "type": "event"
    },
    {
      "anonymous": false,
      "inputs": [
        {
          "indexed": true,
          "internalType": "uint256",
          "name": "contractId",
          "type": "uint256"
        },
        {
          "indexed": false,
          "internalType": "string",
          "name": "newIpfsCid",
          "type": "string"
        }
      ],
      "name": "ContractUpdated",
      "type": "event"
    },
    {
      "anonymous": false,
      "inputs": [
        {
          "indexed": true,
          "internalType": "uint256",
          "name": "slaId",
          "type": "uint256"
        },
        {
          "indexed": false,
          "internalType": "string",
          "name": "field",
          "type": "string"
        },
        {
          "indexed": false,
          "internalType": "string",
          "name": "detail",
          "type": "string"
        }
      ],
      "name": "NoveltyApplied",
      "type": "event"
    },
    {
      "anonymous": false,
      "inputs": [
        {
          "indexed": true,
          "internalType": "bytes32",
          "name": "role",
          "type": "bytes32"
        },
        {
          "indexed": true,
          "internalType": "bytes32",
          "name": "previousAdminRole",
          "type": "bytes32"
        },
        {
          "indexed": true,
          "internalType": "bytes32",
          "name": "newAdminRole",
          "type": "bytes32"
        }
      ],
      "name": "RoleAdminChanged",
      "type": "event"
    },
    {
      "anonymous": false,
      "inputs": [
        {
          "indexed": true,
          "internalType": "bytes32",
          "name": "role",
          "type": "bytes32"
        },
        {
          "indexed": true,
          "internalType": "address",
          "name": "account",
          "type": "address"
        },
        {
          "indexed": true,
          "internalType": "address",
          "name": "sender",
          "type": "address"
        }
      ],
      "name": "RoleGranted",
      "type": "event"
    },
    {
      "anonymous": false,
      "inputs": [
        {
          "indexed": true,
          "internalType": "bytes32",
          "name": "role",
          "type": "bytes32"
        },
        {
          "indexed": true,
          "internalType": "address",
          "name": "account",
          "type": "address"
        },
        {
          "indexed": true,
          "internalType": "address",
          "name": "sender",
          "type": "address"
        }
      ],
      "name": "RoleRevoked",
      "type": "event"
    },
    {
      "anonymous": false,
      "inputs": [
        {
          "indexed": true,
          "internalType": "uint256",
          "name": "slaId",
          "type": "uint256"
        },
        {
          "indexed": true,
          "internalType": "uint256",
          "name": "contractId",
          "type": "uint256"
        },
        {
          "indexed": false,
          "internalType": "string",
          "name": "name",
          "type": "string"
        },
        {
          "indexed": false,
          "internalType": "uint256",
          "name": "target",
          "type": "uint256"
        },
        {
          "indexed": false,
          "internalType": "enum SLARegistry.Comparator",
          "name": "comparator",
          "type": "uint8"
        },
        {
          "indexed": false,
          "internalType": "uint64",
          "name": "windowSeconds",
          "type": "uint64"
        }
      ],
      "name": "SLACreated",
      "type": "event"
    },
    {
      "anonymous": false,
      "inputs": [
        {
          "indexed": true,
          "internalType": "uint256",
          "name": "slaId",
          "type": "uint256"
        },
        {
          "indexed": false,
          "internalType": "uint256",
          "name": "observed",
          "type": "uint256"
        },
        {
          "indexed": false,
          "internalType": "bool",
          "name": "success",
          "type": "bool"
        },
        {
          "indexed": false,
          "internalType": "string",
          "name": "note",
          "type": "string"
        }
      ],
      "name": "SLAMetricReported",
      "type": "event"
    },
    {
      "anonymous": false,
      "inputs": [
        {
          "indexed": true,
          "internalType": "uint256",
          "name": "slaId",
          "type": "uint256"
        },
        {
          "indexed": false,
          "internalType": "enum SLARegistry.SLAStatus",
          "name": "newStatus",
          "type": "uint8"
        }
      ],
      "name": "SLAStatusChanged",
      "type": "event"
    },
    {
      "anonymous": false,
      "inputs": [
        {
          "indexed": true,
          "internalType": "uint256",
          "name": "alertId",
          "type": "uint256"
        },
        {
          "indexed": true,
          "internalType": "uint256",
          "name": "slaId",
          "type": "uint256"
        },
        {
          "indexed": false,
          "internalType": "string",
          "name": "reason",
          "type": "string"
        }
      ],
      "name": "SLAViolated",
      "type": "event"
    },
    {
      "inputs": [],
      "name": "CONTRACT_MS_ROLE",
      "outputs": [
        {
          "internalType": "bytes32",
          "name": "",
          "type": "bytes32"
        }
      ],
      "stateMutability": "view",
      "type": "function"
    },
    {
      "inputs": [],
      "name": "DEFAULT_ADMIN_ROLE",
      "outputs": [
        {
          "internalType": "bytes32",
          "name": "",
          "type": "bytes32"
        }
      ],
      "stateMutability": "view",
      "type": "function"
    },
    {
      "inputs": [],
      "name": "NOVELTIES_MS_ROLE",
      "outputs": [
        {
          "internalType": "bytes32",
          "name": "",
          "type": "bytes32"
        }
      ],
      "stateMutability": "view",
      "type": "function"
    },
    {
      "inputs": [],
      "name": "OPS_ROLE",
      "outputs": [
        {
          "internalType": "bytes32",
          "name": "",
          "type": "bytes32"
        }
      ],
      "stateMutability": "view",
      "type": "function"
    },
    {
      "inputs": [
        {
          "internalType": "uint256",
          "name": "alertId",
          "type": "uint256"
        }
      ],
      "name": "acknowledgeAlert",
      "outputs": [],
      "stateMutability": "nonpayable",
      "type": "function"
    },
    {
      "inputs": [
        {
          "internalType": "uint256",
          "name": "contractId",
          "type": "uint256"
        },
        {
          "internalType": "string",
          "name": "name",
          "type": "string"
        },
        {
          "internalType": "uint256",
          "name": "target",
          "type": "uint256"
        },
        {
          "internalType": "enum SLARegistry.Comparator",
          "name": "comparator",
          "type": "uint8"
        },
        {
          "internalType": "uint64",
          "name": "windowSeconds",
          "type": "uint64"
        }
      ],
      "name": "addSLA",
      "outputs": [
        {
          "internalType": "uint256",
          "name": "slaId",
          "type": "uint256"
        }
      ],
      "stateMutability": "nonpayable",
      "type": "function"
    },
    {
      "inputs": [
        {
          "internalType": "uint256",
          "name": "",
          "type": "uint256"
        }
      ],
      "name": "alerts",
      "outputs": [
        {
          "internalType": "uint256",
          "name": "id",
          "type": "uint256"
        },
        {
          "internalType": "uint256",
          "name": "slaId",
          "type": "uint256"
        },
        {
          "internalType": "uint64",
          "name": "createdAt",
          "type": "uint64"
        },
        {
          "internalType": "enum SLARegistry.AlertStatus",
          "name": "status",
          "type": "uint8"
        },
        {
          "internalType": "string",
          "name": "reason",
          "type": "string"
        }
      ],
      "stateMutability": "view",
      "type": "function"
    },
    {
      "inputs": [
        {
          "internalType": "uint256",
          "name": "",
          "type": "uint256"
        },
        {
          "internalType": "uint256",
          "name": "",
          "type": "uint256"
        }
      ],
      "name": "clientContracts",
      "outputs": [
        {
          "internalType": "uint256",
          "name": "",
          "type": "uint256"
        }
      ],
      "stateMutability": "view",
      "type": "function"
    },
    {
      "inputs": [
        {
          "internalType": "uint256",
          "name": "",
          "type": "uint256"
        }
      ],
      "name": "clients",
      "outputs": [
        {
          "internalType": "uint256",
          "name": "id",
          "type": "uint256"
        },
        {
          "internalType": "string",
          "name": "name",
          "type": "string"
        },
        {
          "internalType": "address",
          "name": "account",
          "type": "address"
        },
        {
          "internalType": "bool",
          "name": "active",
          "type": "bool"
        }
      ],
      "stateMutability": "view",
      "type": "function"
    },
    {
      "inputs": [
        {
          "internalType": "uint256",
          "name": "",
          "type": "uint256"
        },
        {
          "internalType": "uint256",
          "name": "",
          "type": "uint256"
        }
      ],
      "name": "contractSLAs",
      "outputs": [
        {
          "internalType": "uint256",
          "name": "",
          "type": "uint256"
        }
      ],
      "stateMutability": "view",
      "type": "function"
    },
    {
      "inputs": [
        {
          "internalType": "uint256",
          "name": "",
          "type": "uint256"
        }
      ],
      "name": "contractsById",
      "outputs": [
        {
          "internalType": "uint256",
          "name": "id",
          "type": "uint256"
        },
        {
          "internalType": "uint256",
          "name": "clientId",
          "type": "uint256"
        },
        {
          "internalType": "string",
          "name": "ipfsCid",
          "type": "string"
        },
        {
          "internalType": "uint64",
          "name": "startDate",
          "type": "uint64"
        },
        {
          "internalType": "uint64",
          "name": "endDate",
          "type": "uint64"
        },
        {
          "internalType": "bool",
          "name": "active",
          "type": "bool"
        }
      ],
      "stateMutability": "view",
      "type": "function"
    },
    {
      "inputs": [
        {
          "internalType": "uint256",
          "name": "clientId",
          "type": "uint256"
        },
        {
          "internalType": "string",
          "name": "ipfsCid",
          "type": "string"
        },
        {
          "internalType": "uint64",
          "name": "startDate",
          "type": "uint64"
        },
        {
          "internalType": "uint64",
          "name": "endDate",
          "type": "uint64"
        }
      ],
      "name": "createContract",
      "outputs": [
        {
          "internalType": "uint256",
          "name": "contractId",
          "type": "uint256"
        }
      ],
      "stateMutability": "nonpayable",
      "type": "function"
    },
    {
      "inputs": [
        {
          "internalType": "uint256",
          "name": "clientId",
          "type": "uint256"
        }
      ],
      "name": "getClientContracts",
      "outputs": [
        {
          "internalType": "uint256[]",
          "name": "",
          "type": "uint256[]"
        }
      ],
      "stateMutability": "view",
      "type": "function"
    },
    {
      "inputs": [
        {
          "internalType": "uint256",
          "name": "contractId",
          "type": "uint256"
        }
      ],
      "name": "getContractSLAs",
      "outputs": [
        {
          "internalType": "uint256[]",
          "name": "",
          "type": "uint256[]"
        }
      ],
      "stateMutability": "view",
      "type": "function"
    },
    {
      "inputs": [
        {
          "internalType": "bytes32",
          "name": "role",
          "type": "bytes32"
        }
      ],
      "name": "getRoleAdmin",
      "outputs": [
        {
          "internalType": "bytes32",
          "name": "",
          "type": "bytes32"
        }
      ],
      "stateMutability": "view",
      "type": "function"
    },
    {
      "inputs": [
        {
          "internalType": "uint256",
          "name": "slaId",
          "type": "uint256"
        }
      ],
      "name": "getSLAAlerts",
      "outputs": [
        {
          "internalType": "uint256[]",
          "name": "",
          "type": "uint256[]"
        }
      ],
      "stateMutability": "view",
      "type": "function"
    },
    {
      "inputs": [
        {
          "internalType": "bytes32",
          "name": "role",
          "type": "bytes32"
        },
        {
          "internalType": "address",
          "name": "account",
          "type": "address"
        }
      ],
      "name": "grantRole",
      "outputs": [],
      "stateMutability": "nonpayable",
      "type": "function"
    },
    {
      "inputs": [
        {
          "internalType": "bytes32",
          "name": "role",
          "type": "bytes32"
        },
        {
          "internalType": "address",
          "name": "account",
          "type": "address"
        }
      ],
      "name": "hasRole",
      "outputs": [
        {
          "internalType": "bool",
          "name": "",
          "type": "bool"
        }
      ],
      "stateMutability": "view",
      "type": "function"
    },
    {
      "inputs": [
        {
          "internalType": "uint256",
          "name": "slaId",
          "type": "uint256"
        },
        {
          "internalType": "string",
          "name": "reason",
          "type": "string"
        }
      ],
      "name": "pauseSLA",
      "outputs": [],
      "stateMutability": "nonpayable",
      "type": "function"
    },
    {
      "inputs": [
        {
          "internalType": "string",
          "name": "name",
          "type": "string"
        },
        {
          "internalType": "address",
          "name": "account",
          "type": "address"
        }
      ],
      "name": "registerClient",
      "outputs": [
        {
          "internalType": "uint256",
          "name": "clientId",
          "type": "uint256"
        }
      ],
      "stateMutability": "nonpayable",
      "type": "function"
    },
    {
      "inputs": [
        {
          "internalType": "bytes32",
          "name": "role",
          "type": "bytes32"
        },
        {
          "internalType": "address",
          "name": "callerConfirmation",
          "type": "address"
        }
      ],
      "name": "renounceRole",
      "outputs": [],
      "stateMutability": "nonpayable",
      "type": "function"
    },
    {
      "inputs": [
        {
          "internalType": "uint256",
          "name": "slaId",
          "type": "uint256"
        },
        {
          "internalType": "uint256",
          "name": "observed",
          "type": "uint256"
        },
        {
          "internalType": "string",
          "name": "note",
          "type": "string"
        }
      ],
      "name": "reportMetric",
      "outputs": [],
      "stateMutability": "nonpayable",
      "type": "function"
    },
    {
      "inputs": [
        {
          "internalType": "uint256",
          "name": "alertId",
          "type": "uint256"
        },
        {
          "internalType": "string",
          "name": "resolutionNote",
          "type": "string"
        }
      ],
      "name": "resolveAlert",
      "outputs": [],
      "stateMutability": "nonpayable",
      "type": "function"
    },
    {
      "inputs": [
        {
          "internalType": "uint256",
          "name": "slaId",
          "type": "uint256"
        },
        {
          "internalType": "string",
          "name": "reason",
          "type": "string"
        }
      ],
      "name": "resumeSLA",
      "outputs": [],
      "stateMutability": "nonpayable",
      "type": "function"
    },
    {
      "inputs": [
        {
          "internalType": "bytes32",
          "name": "role",
          "type": "bytes32"
        },
        {
          "internalType": "address",
          "name": "account",
          "type": "address"
        }
      ],
      "name": "revokeRole",
      "outputs": [],
      "stateMutability": "nonpayable",
      "type": "function"
    },
    {
      "inputs": [
        {
          "internalType": "uint256",
          "name": "",
          "type": "uint256"
        },
        {
          "internalType": "uint256",
          "name": "",
          "type": "uint256"
        }
      ],
      "name": "slaAlerts",
      "outputs": [
        {
          "internalType": "uint256",
          "name": "",
          "type": "uint256"
        }
      ],
      "stateMutability": "view",
      "type": "function"
    },
    {
      "inputs": [
        {
          "internalType": "uint256",
          "name": "",
          "type": "uint256"
        }
      ],
      "name": "slas",
      "outputs": [
        {
          "internalType": "uint256",
          "name": "id",
          "type": "uint256"
        },
        {
          "internalType": "uint256",
          "name": "contractId",
          "type": "uint256"
        },
        {
          "internalType": "string",
          "name": "name",
          "type": "string"
        },
        {
          "internalType": "uint256",
          "name": "target",
          "type": "uint256"
        },
        {
          "internalType": "enum SLARegistry.Comparator",
          "name": "comparator",
          "type": "uint8"
        },
        {
          "internalType": "enum SLARegistry.SLAStatus",
          "name": "status",
          "type": "uint8"
        },
        {
          "internalType": "uint64",
          "name": "windowSeconds",
          "type": "uint64"
        },
        {
          "internalType": "uint64",
          "name": "lastReportAt",
          "type": "uint64"
        },
        {
          "internalType": "uint32",
          "name": "consecutiveBreaches",
          "type": "uint32"
        },
        {
          "internalType": "uint32",
          "name": "totalBreaches",
          "type": "uint32"
        },
        {
          "internalType": "uint32",
          "name": "totalPass",
          "type": "uint32"
        }
      ],
      "stateMutability": "view",
      "type": "function"
    },
    {
      "inputs": [
        {
          "internalType": "bytes4",
          "name": "interfaceId",
          "type": "bytes4"
        }
      ],
      "name": "supportsInterface",
      "outputs": [
        {
          "internalType": "bool",
          "name": "",
          "type": "bool"
        }
      ],
      "stateMutability": "view",
      "type": "function"
    },
    {
      "inputs": [
        {
          "internalType": "uint256",
          "name": "contractId",
          "type": "uint256"
        },
        {
          "internalType": "string",
          "name": "newCid",
          "type": "string"
        }
      ],
      "name": "updateContractIPFS",
      "outputs": [],
      "stateMutability": "nonpayable",
      "type": "function"
    },
    {
      "inputs": [
        {
          "internalType": "uint256",
          "name": "slaId",
          "type": "uint256"
        },
        {
          "internalType": "enum SLARegistry.Comparator",
          "name": "newComparator",
          "type": "uint8"
        },
        {
          "internalType": "uint64",
          "name": "newWindowSeconds",
          "type": "uint64"
        },
        {
          "internalType": "string",
          "name": "reason",
          "type": "string"
        }
      ],
      "name": "updateSLAParams",
      "outputs": [],
      "stateMutability": "nonpayable",
      "type": "function"
    },
    {
      "inputs": [
        {
          "internalType": "uint256",
          "name": "slaId",
          "type": "uint256"
        },
        {
          "internalType": "uint256",
          "name": "newTarget",
          "type": "uint256"
        },
        {
          "internalType": "string",
          "name": "reason",
          "type": "string"
        }
      ],
      "name": "updateSLATarget",
      "outputs": [],
      "stateMutability": "nonpayable",
      "type": "function"
    }
  ],
  "bytecode": "0x608060405234801561000f575f5ffd5b506040516126dd3803806126dd83398101604081905261002e91610169565b6100385f826100c0565b506100637fc1cff70c16deb04f8d0fe27c7216456271b5eee6903d1105e659aaccdd0b3b43826100c0565b5061008e7f30621e2f9304b0b020160b2f300d5e4e2fcc942c79d4fa547ff584ca723b3e59826100c0565b506100b97f65aa5eac1b32fde55d4db583460221274367300ae805596cf543907b5d458c00826100c0565b5050610196565b5f828152602081815260408083206001600160a01b038516845290915281205460ff16610160575f838152602081815260408083206001600160a01b03861684529091529020805460ff191660011790556101183390565b6001600160a01b0316826001600160a01b0316847f2f8788117e7eff1d82e926ec794901d17c78024a50270940304540a733656f0d60405160405180910390a4506001610163565b505f5b92915050565b5f60208284031215610179575f5ffd5b81516001600160a01b038116811461018f575f5ffd5b9392505050565b61253a806101a35f395ff3fe608060405234801561000f575f5ffd5b50600436106101dc575f3560e01c806391d1485411610109578063c565d5851161009e578063e1049d331161006e578063e1049d3314610466578063ed53274e14610479578063f73209921461048c578063f88af21d1461049f575f5ffd5b8063c565d58514610419578063d206bba01461042c578063d547741f1461043f578063db120b3b14610452575f5ffd5b8063b7e24ea1116100d9578063b7e24ea1146103cd578063ba12fd77146103e0578063bdb281fb146103f3578063c3e8477314610406575f5ffd5b806391d148541461037b57806396a23ae71461038e578063a217fddf146103b3578063a3275e5b146103ba575f5ffd5b80632bb2d3d71161017f578063727d6a111161014f578063727d6a111461032e578063742756ad1461034257806384ffe61d14610355578063890458c614610368575f5ffd5b80632bb2d3d7146102be5780632f2ff15d146102e857806336568abe146102fb5780635cdd7fff1461030e575f5ffd5b806313cd8f14116101ba57806313cd8f1414610250578063171d073a1461026557806318c1987014610289578063248a9ca31461029c575f5ffd5b806301cbb02f146101e057806301ffc9a7146102065780630f3ba02314610229575b5f5ffd5b6101f36101ee366004611b8b565b6104c2565b6040519081526020015b60405180910390f35b610219610214366004611bab565b6104ed565b60405190151581526020016101fd565b6101f37f65aa5eac1b32fde55d4db583460221274367300ae805596cf543907b5d458c0081565b61026361025e366004611c16565b610523565b005b610278610273366004611c5d565b610648565b6040516101fd959493929190611cc6565b6101f3610297366004611d28565b61070e565b6101f36102aa366004611c5d565b5f9081526020819052604090206001015490565b6102d16102cc366004611c5d565b61080a565b6040516101fd9b9a99989796959493929190611d8b565b6102636102f6366004611e13565b610909565b610263610309366004611e13565b610933565b61032161031c366004611c5d565b61096b565b6040516101fd9190611e3d565b6101f35f5160206124e55f395f51905f5281565b610263610350366004611c16565b6109ca565b610263610363366004611e7f565b610adc565b610321610376366004611c5d565b610e6c565b610219610389366004611e13565b610ec9565b6103a161039c366004611c5d565b610ef1565b6040516101fd96959493929190611ecd565b6101f35f81565b6102636103c8366004611e7f565b610fc1565b6102636103db366004611c16565b611031565b6102636103ee366004611c5d565b611101565b6101f3610401366004611f39565b6111e8565b6101f3610414366004611b8b565b6114d6565b6101f3610427366004611fa9565b6114ef565b61026361043a366004611c16565b6116eb565b61026361044d366004611e13565b611784565b6101f35f5160206124c55f395f51905f5281565b610263610474366004612012565b6117a8565b610321610487366004611c5d565b61185f565b6101f361049a366004611b8b565b6118bc565b6104b26104ad366004611c5d565b6118d5565b6040516101fd949392919061207b565b600a602052815f5260405f2081815481106104db575f80fd5b905f5260205f20015f91509150505481565b5f6001600160e01b03198216637965db0b60e01b148061051d57506301ffc9a760e01b6001600160e01b03198316145b92915050565b7f65aa5eac1b32fde55d4db583460221274367300ae805596cf543907b5d458c0061054d81611993565b5f8481526008602052604090206001600282810154600160401b900460ff169081111561057c5761057c611c74565b14806105a657505f600282810154600160401b900460ff16908111156105a4576105a4611c74565b145b6105ec5760405162461bcd60e51b8152602060048201526012602482015271416c657274206e6f74206f70656e2f61636b60701b60448201526064015b60405180910390fd5b6002818101805460ff60401b1916600160401b830217905550847fba51c6b50e232d27357678330fc0840178d98f7b0c72ab4f015c111fc886a794338686604051610639939291906120dc565b60405180910390a25050505050565b60086020525f90815260409020805460018201546002830154600384018054939492936001600160401b03831693600160401b90930460ff1692919061068d90612109565b80601f01602080910402602001604051908101604052809291908181526020018280546106b990612109565b80156107045780601f106106db57610100808354040283529160200191610704565b820191905f5260205f20905b8154815290600101906020018083116106e757829003601f168201915b5050505050905085565b5f5f5160206124c55f395f51905f5261072681611993565b60018054905f61073583612155565b91905055506001549150604051806080016040528083815260200186868080601f0160208091040260200160405190810160405280939291908181526020018383808284375f9201829052509385525050506001600160a01b038616602080840191909152600160409384018190528683526005825292909120835181559083015190918201906107c690826121cc565b506040820151600290910180546060909301511515600160a01b026001600160a81b03199093166001600160a01b0390921691909117919091179055509392505050565b60076020525f90815260409020805460018201546002830180549293919261083190612109565b80601f016020809104026020016040519081016040528092919081815260200182805461085d90612109565b80156108a85780601f1061087f576101008083540402835291602001916108a8565b820191905f5260205f20905b81548152906001019060200180831161088b57829003601f168201915b505050600384015460049094015492939260ff808216935061010082041691506001600160401b03620100008204811691600160501b81049091169063ffffffff600160901b8204811691600160b01b8104821691600160d01b909104168b565b5f8281526020819052604090206001015461092381611993565b61092d83836119a0565b50505050565b6001600160a01b038116331461095c5760405163334bd91960e11b815260040160405180910390fd5b6109668282611a2f565b505050565b5f818152600960209081526040918290208054835181840281018401909452808452606093928301828280156109be57602002820191905f5260205f20905b8154815260200190600101908083116109aa575b50505050509050919050565b5f5160206124e55f395f51905f526109e181611993565b5f848152600760205260408120906004820154610100900460ff166002811115610a0d57610a0d611c74565b14610a4b5760405162461bcd60e51b815260206004820152600e60248201526d534c41206e6f742061637469766560901b60448201526064016105e3565b6004810180546001919061ff001916610100835b0217905550600481015460405186917f93a579d5a55a24348bb855fef61634efb8f5221e2c8fd5d8e7602a5203e2ae5491610aa291610100900460ff1690612286565b60405180910390a2847f9bacd5203e1331120f18eb432df6d8292e9379f2a56d672ca7cf7811c072b7e18585604051610639929190612299565b5f5160206124c55f395f51905f52610af381611993565b5f858152600760205260408120906004820154610100900460ff166002811115610b1f57610b1f611c74565b14610b5d5760405162461bcd60e51b815260206004820152600e60248201526d534c41206e6f742061637469766560901b60448201526064016105e3565b600381015460048201545f91610b789188919060ff16611a98565b60048301805467ffffffffffffffff60501b1916600160501b426001600160401b03160217905590508015610c3b5760048201805463ffffffff60901b191680825560019190601a90610bd9908490600160d01b900463ffffffff166122d1565b92506101000a81548163ffffffff021916908363ffffffff160217905550867ff33b0cef0d4b885137ffc7f40a6920e0fcd03174d1517cf6bf21770d5f7a2e628760018888604051610c2e94939291906122ed565b60405180910390a2610e63565b60018260040160128282829054906101000a900463ffffffff16610c5f91906122d1565b92506101000a81548163ffffffff021916908363ffffffff16021790555060018260040160168282829054906101000a900463ffffffff16610ca191906122d1565b92506101000a81548163ffffffff021916908363ffffffff160217905550867ff33b0cef0d4b885137ffc7f40a6920e0fcd03174d1517cf6bf21770d5f7a2e62875f8888604051610cf594939291906122ed565b60405180910390a260048054905f610d0c83612155565b90915550506004546040805160a08101825282815260208082018b9052426001600160401b0316828401525f60608301528251601f89018290048202810182019093528783529091608083019189908990819084018382808284375f920182905250939094525050838152600860209081526040918290208451815590840151600182015590830151600280830180546001600160401b0390931667ffffffffffffffff198416811782556060870151949550909268ffffffffffffffffff19161790600160401b908490811115610de657610de6611c74565b021790555060808201516003820190610dff90826121cc565b5050505f888152600b602090815260408083208054600181018255908452919092200182905551889082907fcdd8119328e26d0fdbb56a885adc1df8aeada2417c8210746e81f0e508ce393a90610e59908a908a90612318565b60405180910390a3505b50505050505050565b5f818152600b60209081526040918290208054835181840281018401909452808452606093928301828280156109be57602002820191905f5260205f20908154815260200190600101908083116109aa5750505050509050919050565b5f918252602082815260408084206001600160a01b0393909316845291905290205460ff1690565b60066020525f908152604090208054600182015460028301805492939192610f1890612109565b80601f0160208091040260200160405190810160405280929190818152602001828054610f4490612109565b8015610f8f5780601f10610f6657610100808354040283529160200191610f8f565b820191905f5260205f20905b815481529060010190602001808311610f7257829003601f168201915b505050600390930154919250506001600160401b0380821691600160401b81049091169060ff600160801b9091041686565b5f5160206124e55f395f51905f52610fd881611993565b5f858152600760205260409081902060038101869055905186907f9bacd5203e1331120f18eb432df6d8292e9379f2a56d672ca7cf7811c072b7e190611021908790879061232b565b60405180910390a2505050505050565b5f5160206124c55f395f51905f5261104881611993565b5f84815260066020526040902060030154600160801b900460ff166110a55760405162461bcd60e51b8152602060048201526013602482015272436f6e7472616374206e6f742061637469766560681b60448201526064016105e3565b5f8481526006602052604090206002016110c083858361235b565b50837f3d6b58530bfb3205822f758555331d98d728b985f2081c1f5dbdcf7bc755d65084846040516110f3929190612318565b60405180910390a250505050565b7f65aa5eac1b32fde55d4db583460221274367300ae805596cf543907b5d458c0061112b81611993565b5f82815260086020526040812090600282810154600160401b900460ff169081111561115957611159611c74565b146111975760405162461bcd60e51b815260206004820152600e60248201526d20b632b93a103737ba1037b832b760911b60448201526064016105e3565b600281018054600160401b60ff60401b1990911617905560405133815283907f13256ff47d9cd49e9bc180e0acdc9d7968acfe7bb206ee382267efedc192b30c9060200160405180910390a2505050565b5f5f5160206124c55f395f51905f5261120081611993565b5f88815260066020526040902060030154600160801b900460ff1661125d5760405162461bcd60e51b8152602060048201526013602482015272436f6e7472616374206e6f742061637469766560681b60448201526064016105e3565b60038054905f61126c83612155565b9190505550600354915060405180610160016040528083815260200189815260200188888080601f0160208091040260200160405190810160405280939291908181526020018383808284375f92019190915250505090825250602081018790526040018560048111156112e2576112e2611c74565b81526020015f81526001600160401b0385166020808301919091525f6040808401829052606084018290526080840182905260a0909301819052858152600782528290208351815590830151600182015590820151600282019061134690826121cc565b50606082015181600301556080820151816004015f6101000a81548160ff0219169083600481111561137a5761137a611c74565b021790555060a082015160048201805461ff0019166101008360028111156113a4576113a4611c74565b021790555060c0820151600491909101805460e08401516101008501516101208601516101409096015171ffffffffffffffffffffffffffffffff000019909316620100006001600160401b039687160267ffffffffffffffff60501b191617600160501b95909216949094021767ffffffffffffffff60901b1916600160901b63ffffffff9485160263ffffffff60b01b191617600160b01b948416949094029390931763ffffffff60d01b1916600160d01b92909316919091029190911790555f888152600a602090815260408083208054600181018255908452919092200183905551889083907f0657f89b815dccef9ba5a6ba8656f9a58298e1368d8972353aa08b5a21fc45d8906114c3908b908b908b908b908b90612414565b60405180910390a3509695505050505050565b6009602052815f5260405f2081815481106104db575f80fd5b5f5f5160206124c55f395f51905f5261150781611993565b5f87815260056020526040902060020154600160a01b900460ff166115625760405162461bcd60e51b8152602060048201526011602482015270436c69656e74206e6f742061637469766560781b60448201526064016105e3565b60028054905f61157183612155565b919050555060025491506040518060c0016040528083815260200188815260200187878080601f0160208091040260200160405190810160405280939291908181526020018383808284375f9201829052509385525050506001600160401b03808816602080850191909152908716604080850191909152600160609094018490528683526006825291829020845181559084015192810192909255820151600282019061161f90826121cc565b50606082015160039091018054608084015160a0909401511515600160801b0260ff60801b196001600160401b03958616600160401b026fffffffffffffffffffffffffffffffff19909316959094169490941717919091169190911790555f8781526009602090815260408083208054600181018255908452919092200183905551879083907f9abc89426c71ff64c715a052f658d7a9d8dd8c07ea913d347f3cbcdade6cbee9906116d9908a908a908a908a90612455565b60405180910390a35095945050505050565b5f5160206124e55f395f51905f5261170281611993565b5f84815260076020526040902060016004820154610100900460ff16600281111561172f5761172f611c74565b1461176d5760405162461bcd60e51b815260206004820152600e60248201526d14d310481b9bdd081c185d5cd95960921b60448201526064016105e3565b6004810180545f919061ff00191661010083610a5f565b5f8281526020819052604090206001015461179e81611993565b61092d8383611a2f565b5f5160206124e55f395f51905f526117bf81611993565b5f86815260076020526040902060048082018054889260ff199091169060019084908111156117f0576117f0611c74565b021790555060048101805469ffffffffffffffff00001916620100006001600160401b0388160217905560405187907f9bacd5203e1331120f18eb432df6d8292e9379f2a56d672ca7cf7811c072b7e19061184e9087908790612489565b60405180910390a250505050505050565b5f818152600a60209081526040918290208054835181840281018401909452808452606093928301828280156109be57602002820191905f5260205f20908154815260200190600101908083116109aa5750505050509050919050565b600b602052815f5260405f2081815481106104db575f80fd5b60056020525f9081526040902080546001820180549192916118f690612109565b80601f016020809104026020016040519081016040528092919081815260200182805461192290612109565b801561196d5780601f106119445761010080835404028352916020019161196d565b820191905f5260205f20905b81548152906001019060200180831161195057829003601f168201915b505050600290930154919250506001600160a01b0381169060ff600160a01b9091041684565b61199d8133611b4e565b50565b5f6119ab8383610ec9565b611a28575f838152602081815260408083206001600160a01b03861684529091529020805460ff191660011790556119e03390565b6001600160a01b0316826001600160a01b0316847f2f8788117e7eff1d82e926ec794901d17c78024a50270940304540a733656f0d60405160405180910390a450600161051d565b505f61051d565b5f611a3a8383610ec9565b15611a28575f838152602081815260408083206001600160a01b0386168085529252808320805460ff1916905551339286917ff6391f5c32d9c69d2a47ea670b442974b53935d1edc7fd64eb21e047a839171b9190a450600161051d565b5f80826004811115611aac57611aac611c74565b03611aba5750818310611b47565b6001826004811115611ace57611ace611c74565b03611add575081831115611b47565b6002826004811115611af157611af1611c74565b03611aff5750828214611b47565b6003826004811115611b1357611b13611c74565b03611b22575081831015611b47565b6004826004811115611b3657611b36611c74565b03611b445750818311611b47565b505f5b9392505050565b611b588282610ec9565b611b875760405163e2517d3f60e01b81526001600160a01b0382166004820152602481018390526044016105e3565b5050565b5f5f60408385031215611b9c575f5ffd5b50508035926020909101359150565b5f60208284031215611bbb575f5ffd5b81356001600160e01b031981168114611b47575f5ffd5b5f5f83601f840112611be2575f5ffd5b5081356001600160401b03811115611bf8575f5ffd5b602083019150836020828501011115611c0f575f5ffd5b9250929050565b5f5f5f60408486031215611c28575f5ffd5b8335925060208401356001600160401b03811115611c44575f5ffd5b611c5086828701611bd2565b9497909650939450505050565b5f60208284031215611c6d575f5ffd5b5035919050565b634e487b7160e01b5f52602160045260245ffd5b6003811061199d5761199d611c74565b5f81518084528060208401602086015e5f602082860101526020601f19601f83011685010191505092915050565b8581528460208201526001600160401b0384166040820152611ce783611c88565b82606082015260a060808201525f611d0260a0830184611c98565b979650505050505050565b80356001600160a01b0381168114611d23575f5ffd5b919050565b5f5f5f60408486031215611d3a575f5ffd5b83356001600160401b03811115611d4f575f5ffd5b611d5b86828701611bd2565b9094509250611d6e905060208501611d0d565b90509250925092565b60058110611d8757611d87611c74565b9052565b8b81528a602082015261016060408201525f611dab61016083018c611c98565b9050896060830152611dc0608083018a611d77565b611dc988611c88565b60a08201979097526001600160401b0395861660c08201529390941660e084015263ffffffff91821661010084015281166101208301529091166101409091015295945050505050565b5f5f60408385031215611e24575f5ffd5b82359150611e3460208401611d0d565b90509250929050565b602080825282518282018190525f918401906040840190835b81811015611e74578351835260209384019390920191600101611e56565b509095945050505050565b5f5f5f5f60608587031215611e92575f5ffd5b843593506020850135925060408501356001600160401b03811115611eb5575f5ffd5b611ec187828801611bd2565b95989497509550505050565b86815285602082015260c060408201525f611eeb60c0830187611c98565b6001600160401b03958616606084015293909416608082015290151560a090910152949350505050565b803560058110611d23575f5ffd5b80356001600160401b0381168114611d23575f5ffd5b5f5f5f5f5f5f60a08789031215611f4e575f5ffd5b8635955060208701356001600160401b03811115611f6a575f5ffd5b611f7689828a01611bd2565b90965094505060408701359250611f8f60608801611f15565b9150611f9d60808801611f23565b90509295509295509295565b5f5f5f5f5f60808688031215611fbd575f5ffd5b8535945060208601356001600160401b03811115611fd9575f5ffd5b611fe588828901611bd2565b9095509350611ff8905060408701611f23565b915061200660608701611f23565b90509295509295909350565b5f5f5f5f5f60808688031215612026575f5ffd5b8535945061203660208701611f15565b935061204460408701611f23565b925060608601356001600160401b0381111561205e575f5ffd5b61206a88828901611bd2565b969995985093965092949392505050565b848152608060208201525f6120936080830186611c98565b6001600160a01b039490941660408301525090151560609091015292915050565b81835281816020850137505f828201602090810191909152601f909101601f19169091010190565b6001600160a01b03841681526040602082018190525f9061210090830184866120b4565b95945050505050565b600181811c9082168061211d57607f821691505b60208210810361213b57634e487b7160e01b5f52602260045260245ffd5b50919050565b634e487b7160e01b5f52601160045260245ffd5b5f6001820161216657612166612141565b5060010190565b634e487b7160e01b5f52604160045260245ffd5b601f82111561096657805f5260205f20601f840160051c810160208510156121a65750805b601f840160051c820191505b818110156121c5575f81556001016121b2565b5050505050565b81516001600160401b038111156121e5576121e561216d565b6121f9816121f38454612109565b84612181565b6020601f82116001811461222b575f83156122145750848201515b5f19600385901b1c1916600184901b1784556121c5565b5f84815260208120601f198516915b8281101561225a578785015182556020948501946001909201910161223a565b508482101561227757868401515f19600387901b60f8161c191681555b50505050600190811b01905550565b6020810161229383611c88565b91905290565b60408152600660408201526573746174757360d01b6060820152608060208201525f6122c96080830184866120b4565b949350505050565b63ffffffff818116838216019081111561051d5761051d612141565b8481528315156020820152606060408201525f61230e6060830184866120b4565b9695505050505050565b602081525f6122c96020830184866120b4565b6040815260066040820152651d185c99d95d60d21b6060820152608060208201525f6122c96080830184866120b4565b6001600160401b038311156123725761237261216d565b612386836123808354612109565b83612181565b5f601f8411600181146123b7575f85156123a05750838201355b5f19600387901b1c1916600186901b1783556121c5565b5f83815260208120601f198716915b828110156123e657868501358255602094850194600190920191016123c6565b5086821015612402575f1960f88860031b161c19848701351681555b505060018560011b0183555050505050565b608081525f6124276080830187896120b4565b905084602083015261243c6040830185611d77565b6001600160401b03831660608301529695505050505050565b606081525f6124686060830186886120b4565b6001600160401b039485166020840152929093166040909101529392505050565b604081526011604082015270636f6d70617261746f727c77696e646f7760781b6060820152608060208201525f6122c96080830184866120b456fec1cff70c16deb04f8d0fe27c7216456271b5eee6903d1105e659aaccdd0b3b4330621e2f9304b0b020160b2f300d5e4e2fcc942c79d4fa547ff584ca723b3e59a2646970667358221220fa44f28d30777c4392c37aeca37c7ca9180a3193b8ed8c1062466ad2cf2dccb364736f6c634300081c0033",
  "linkReferences": {},
  "deployedLinkReferences": {},
  "immutableReferences": {},
  "inputSourceName": "project/contracts/SLARegistry.sol",
  "buildInfoId": "solc-0_8_28-7298a12233e198e619af2b9a3f0daa75b7c6f6b4"
}